{
  "_format": "hh-sol-artifact-1",
  "contractName": "ReactiveNewsFactory",
  "sourceName": "contracts/ReactiveNewsFactory.sol",
  "abi": [
    {
      "inputs": [],
      "stateMutability": "nonpayable",
      "type": "constructor"
    },
    {
      "anonymous": false,
      "inputs": [
        {
          "indexed": true,
          "internalType": "uint256",
          "name": "instanceId",
          "type": "uint256"
        },
        {
          "indexed": true,
          "internalType": "address",
          "name": "contractAddress",
          "type": "address"
        },
        {
          "indexed": true,
          "internalType": "address",
          "name": "owner",
          "type": "address"
        },
        {
          "indexed": false,
          "internalType": "string",
          "name": "name",
          "type": "string"
        }
      ],
      "name": "ValidatorDeployed",
      "type": "event"
    },
    {
      "inputs": [
        {
          "internalType": "uint256",
          "name": "instanceId",
          "type": "uint256"
        }
      ],
      "name": "deactivateInstance",
      "outputs": [],
      "stateMutability": "nonpayable",
      "type": "function"
    },
    {
      "inputs": [
        {
          "internalType": "string",
          "name": "name",
          "type": "string"
        }
      ],
      "name": "deployValidator",
      "outputs": [
        {
          "internalType": "address",
          "name": "",
          "type": "address"
        }
      ],
      "stateMutability": "nonpayable",
      "type": "function"
    },
    {
      "inputs": [],
      "name": "factoryOwner",
      "outputs": [
        {
          "internalType": "address",
          "name": "",
          "type": "address"
        }
      ],
      "stateMutability": "view",
      "type": "function"
    },
    {
      "inputs": [
        {
          "internalType": "uint256",
          "name": "instanceId",
          "type": "uint256"
        }
      ],
      "name": "getInstance",
      "outputs": [
        {
          "components": [
            {
              "internalType": "address",
              "name": "contractAddress",
              "type": "address"
            },
            {
              "internalType": "string",
              "name": "name",
              "type": "string"
            },
            {
              "internalType": "address",
              "name": "owner",
              "type": "address"
            },
            {
              "internalType": "uint256",
              "name": "createdAt",
              "type": "uint256"
            },
            {
              "internalType": "bool",
              "name": "active",
              "type": "bool"
            }
          ],
          "internalType": "struct ReactiveNewsFactory.NewsValidatorInstance",
          "name": "",
          "type": "tuple"
        }
      ],
      "stateMutability": "view",
      "type": "function"
    },
    {
      "inputs": [
        {
          "internalType": "address",
          "name": "owner",
          "type": "address"
        }
      ],
      "name": "getOwnerInstances",
      "outputs": [
        {
          "internalType": "uint256[]",
          "name": "",
          "type": "uint256[]"
        }
      ],
      "stateMutability": "view",
      "type": "function"
    },
    {
      "inputs": [
        {
          "internalType": "uint256",
          "name": "",
          "type": "uint256"
        }
      ],
      "name": "instances",
      "outputs": [
        {
          "internalType": "address",
          "name": "contractAddress",
          "type": "address"
        },
        {
          "internalType": "string",
          "name": "name",
          "type": "string"
        },
        {
          "internalType": "address",
          "name": "owner",
          "type": "address"
        },
        {
          "internalType": "uint256",
          "name": "createdAt",
          "type": "uint256"
        },
        {
          "internalType": "bool",
          "name": "active",
          "type": "bool"
        }
      ],
      "stateMutability": "view",
      "type": "function"
    },
    {
      "inputs": [],
      "name": "nextInstanceId",
      "outputs": [
        {
          "internalType": "uint256",
          "name": "",
          "type": "uint256"
        }
      ],
      "stateMutability": "view",
      "type": "function"
    },
    {
      "inputs": [
        {
          "internalType": "address",
          "name": "",
          "type": "address"
        },
        {
          "internalType": "uint256",
          "name": "",
          "type": "uint256"
        }
      ],
      "name": "ownerInstances",
      "outputs": [
        {
          "internalType": "uint256",
          "name": "",
          "type": "uint256"
        }
      ],
      "stateMutability": "view",
      "type": "function"
    }
  ],
  "bytecode": "0x6080604052600160025534801561001557600080fd5b5033600360006101000a81548173ffffffffffffffffffffffffffffffffffffffff021916908373ffffffffffffffffffffffffffffffffffffffff160217905550614e5b806100666000396000f3fe608060405234801561001057600080fd5b50600436106100885760003560e01c8063d55fd2901161005b578063d55fd2901461012b578063e253b5561461015b578063ebd348de1461018b578063ee45abb0146101bb57610088565b806301b907801461008d5780633d4db355146100a95780634273601c146100d9578063a2f7b3a5146100f7575b600080fd5b6100a760048036038101906100a291906109dc565b6101d9565b005b6100c360048036038101906100be9190610a67565b610305565b6040516100d09190610ab6565b60405180910390f35b6100e1610336565b6040516100ee9190610ae0565b60405180910390f35b610111600480360381019061010c91906109dc565b61035c565b604051610122959493929190610ba6565b60405180910390f35b61014560048036038101906101409190610c65565b610467565b6040516101529190610ae0565b60405180910390f35b61017560048036038101906101709190610cb2565b610706565b6040516101829190610d9d565b60405180910390f35b6101a560048036038101906101a091906109dc565b61079d565b6040516101b29190610e9d565b60405180910390f35b6101c361092c565b6040516101d09190610ab6565b60405180910390f35b3373ffffffffffffffffffffffffffffffffffffffff1660008083815260200190815260200160002060020160009054906101000a900473ffffffffffffffffffffffffffffffffffffffff1673ffffffffffffffffffffffffffffffffffffffff1614806102955750600360009054906101000a900473ffffffffffffffffffffffffffffffffffffffff1673ffffffffffffffffffffffffffffffffffffffff163373ffffffffffffffffffffffffffffffffffffffff16145b6102d4576040517f08c379a00000000000000000000000000000000000000000000000000000000081526004016102cb90610f0b565b60405180910390fd5b600080600083815260200190815260200160002060040160006101000a81548160ff02191690831515021790555050565b6001602052816000526040600020818154811061032157600080fd5b90600052602060002001600091509150505481565b600360009054906101000a900473ffffffffffffffffffffffffffffffffffffffff1681565b60006020528060005260406000206000915090508060000160009054906101000a900473ffffffffffffffffffffffffffffffffffffffff16908060010180546103a590610f5a565b80601f01602080910402602001604051908101604052809291908181526020018280546103d190610f5a565b801561041e5780601f106103f35761010080835404028352916020019161041e565b820191906000526020600020905b81548152906001019060200180831161040157829003601f168201915b5050505050908060020160009054906101000a900473ffffffffffffffffffffffffffffffffffffffff16908060030154908060040160009054906101000a900460ff16905085565b60008060405161047690610932565b604051809103906000f080158015610492573d6000803e3d6000fd5b5090506000600260008154809291906104aa90610fba565b9190505590506040518060a001604052808373ffffffffffffffffffffffffffffffffffffffff16815260200186868080601f016020809104026020016040519081016040528093929190818152602001838380828437600081840152601f19601f8201169050808301925050505050505081526020013373ffffffffffffffffffffffffffffffffffffffff1681526020014281526020016001151581525060008083815260200190815260200160002060008201518160000160006101000a81548173ffffffffffffffffffffffffffffffffffffffff021916908373ffffffffffffffffffffffffffffffffffffffff16021790555060208201518160010190816105b891906111dd565b5060408201518160020160006101000a81548173ffffffffffffffffffffffffffffffffffffffff021916908373ffffffffffffffffffffffffffffffffffffffff1602179055506060820151816003015560808201518160040160006101000a81548160ff021916908315150217905550905050600160003373ffffffffffffffffffffffffffffffffffffffff1673ffffffffffffffffffffffffffffffffffffffff1681526020019081526020016000208190806001815401808255809150506001900390600052602060002001600090919091909150553373ffffffffffffffffffffffffffffffffffffffff168273ffffffffffffffffffffffffffffffffffffffff16827f107581af5ebbd3c9ab62ff4b930fd1dbfd4d606c5b397da82d121f65b5b5323188886040516106f39291906112eb565b60405180910390a4819250505092915050565b6060600160008373ffffffffffffffffffffffffffffffffffffffff1673ffffffffffffffffffffffffffffffffffffffff16815260200190815260200160002080548060200260200160405190810160405280929190818152602001828054801561079157602002820191906000526020600020905b81548152602001906001019080831161077d575b50505050509050919050565b6107a561093f565b6000808381526020019081526020016000206040518060a00160405290816000820160009054906101000a900473ffffffffffffffffffffffffffffffffffffffff1673ffffffffffffffffffffffffffffffffffffffff1673ffffffffffffffffffffffffffffffffffffffff16815260200160018201805461082890610f5a565b80601f016020809104026020016040519081016040528092919081815260200182805461085490610f5a565b80156108a15780601f10610876576101008083540402835291602001916108a1565b820191906000526020600020905b81548152906001019060200180831161088457829003601f168201915b505050505081526020016002820160009054906101000a900473ffffffffffffffffffffffffffffffffffffffff1673ffffffffffffffffffffffffffffffffffffffff1673ffffffffffffffffffffffffffffffffffffffff168152602001600382015481526020016004820160009054906101000a900460ff1615151515815250509050919050565b60025481565b613b168061131083390190565b6040518060a00160405280600073ffffffffffffffffffffffffffffffffffffffff16815260200160608152602001600073ffffffffffffffffffffffffffffffffffffffff168152602001600081526020016000151581525090565b600080fd5b600080fd5b6000819050919050565b6109b9816109a6565b81146109c457600080fd5b50565b6000813590506109d6816109b0565b92915050565b6000602082840312156109f2576109f161099c565b5b6000610a00848285016109c7565b91505092915050565b600073ffffffffffffffffffffffffffffffffffffffff82169050919050565b6000610a3482610a09565b9050919050565b610a4481610a29565b8114610a4f57600080fd5b50565b600081359050610a6181610a3b565b92915050565b60008060408385031215610a7e57610a7d61099c565b5b6000610a8c85828601610a52565b9250506020610a9d858286016109c7565b9150509250929050565b610ab0816109a6565b82525050565b6000602082019050610acb6000830184610aa7565b92915050565b610ada81610a29565b82525050565b6000602082019050610af56000830184610ad1565b92915050565b600081519050919050565b600082825260208201905092915050565b60005b83811015610b35578082015181840152602081019050610b1a565b60008484015250505050565b6000601f19601f8301169050919050565b6000610b5d82610afb565b610b678185610b06565b9350610b77818560208601610b17565b610b8081610b41565b840191505092915050565b60008115159050919050565b610ba081610b8b565b82525050565b600060a082019050610bbb6000830188610ad1565b8181036020830152610bcd8187610b52565b9050610bdc6040830186610ad1565b610be96060830185610aa7565b610bf66080830184610b97565b9695505050505050565b600080fd5b600080fd5b600080fd5b60008083601f840112610c2557610c24610c00565b5b8235905067ffffffffffffffff811115610c4257610c41610c05565b5b602083019150836001820283011115610c5e57610c5d610c0a565b5b9250929050565b60008060208385031215610c7c57610c7b61099c565b5b600083013567ffffffffffffffff811115610c9a57610c996109a1565b5b610ca685828601610c0f565b92509250509250929050565b600060208284031215610cc857610cc761099c565b5b6000610cd684828501610a52565b91505092915050565b600081519050919050565b600082825260208201905092915050565b6000819050602082019050919050565b610d14816109a6565b82525050565b6000610d268383610d0b565b60208301905092915050565b6000602082019050919050565b6000610d4a82610cdf565b610d548185610cea565b9350610d5f83610cfb565b8060005b83811015610d90578151610d778882610d1a565b9750610d8283610d32565b925050600181019050610d63565b5085935050505092915050565b60006020820190508181036000830152610db78184610d3f565b905092915050565b610dc881610a29565b82525050565b600082825260208201905092915050565b6000610dea82610afb565b610df48185610dce565b9350610e04818560208601610b17565b610e0d81610b41565b840191505092915050565b610e2181610b8b565b82525050565b600060a083016000830151610e3f6000860182610dbf565b5060208301518482036020860152610e578282610ddf565b9150506040830151610e6c6040860182610dbf565b506060830151610e7f6060860182610d0b565b506080830151610e926080860182610e18565b508091505092915050565b60006020820190508181036000830152610eb78184610e27565b905092915050565b7f556e617574686f72697a65640000000000000000000000000000000000000000600082015250565b6000610ef5600c83610b06565b9150610f0082610ebf565b602082019050919050565b60006020820190508181036000830152610f2481610ee8565b9050919050565b7f4e487b7100000000000000000000000000000000000000000000000000000000600052602260045260246000fd5b60006002820490506001821680610f7257607f821691505b602082108103610f8557610f84610f2b565b5b50919050565b7f4e487b7100000000000000000000000000000000000000000000000000000000600052601160045260246000fd5b6000610fc5826109a6565b91507fffffffffffffffffffffffffffffffffffffffffffffffffffffffffffffffff8203610ff757610ff6610f8b565b5b600182019050919050565b7f4e487b7100000000000000000000000000000000000000000000000000000000600052604160045260246000fd5b60008190508160005260206000209050919050565b60006020601f8301049050919050565b600082821b905092915050565b6000600883026110937fffffffffffffffffffffffffffffffffffffffffffffffffffffffffffffffff82611056565b61109d8683611056565b95508019841693508086168417925050509392505050565b6000819050919050565b60006110da6110d56110d0846109a6565b6110b5565b6109a6565b9050919050565b6000819050919050565b6110f4836110bf565b611108611100826110e1565b848454611063565b825550505050565b600090565b61111d611110565b6111288184846110eb565b505050565b5b8181101561114c57611141600082611115565b60018101905061112e565b5050565b601f8211156111915761116281611031565b61116b84611046565b8101602085101561117a578190505b61118e61118685611046565b83018261112d565b50505b505050565b600082821c905092915050565b60006111b460001984600802611196565b1980831691505092915050565b60006111cd83836111a3565b9150826002028217905092915050565b6111e682610afb565b67ffffffffffffffff8111156111ff576111fe611002565b5b6112098254610f5a565b611214828285611150565b600060209050601f8311600181146112475760008415611235578287015190505b61123f85826111c1565b8655506112a7565b601f19841661125586611031565b60005b8281101561127d57848901518255600182019150602085019450602081019050611258565b8683101561129a5784890151611296601f8916826111a3565b8355505b6001600288020188555050505b505050505050565b82818337600083830152505050565b60006112ca8385610b06565b93506112d78385846112af565b6112e083610b41565b840190509392505050565b600060208201905081810360008301526113068184866112be565b9050939250505056fe608060405260016005556000600660146101000a81548160ff02191690831515021790555034801561003057600080fd5b5033600660006101000a81548173ffffffffffffffffffffffffffffffffffffffff021916908373ffffffffffffffffffffffffffffffffffffffff16021790555060405180608001604052806001151581526020016103e8815260200160008152602001600081525060026000600660009054906101000a900473ffffffffffffffffffffffffffffffffffffffff1673ffffffffffffffffffffffffffffffffffffffff1673ffffffffffffffffffffffffffffffffffffffff16815260200190815260200160002060008201518160000160006101000a81548160ff0219169083151502179055506020820151816001015560408201518160020155606082015181600301559050506139cb8061014b6000396000f3fe608060405234801561001057600080fd5b50600436106101585760003560e01c806389aa56a4116100c3578063a7b8614d1161007c578063a7b8614d146103d5578063b0de9d8d14610405578063bd02a23514610421578063d228f5531461043d578063d52c831f1461046d578063da5ce3321461048957610158565b806389aa56a4146102ef5780638af6238f1461030b5780638da5cb5b146103275780639b7e018014610345578063a2d02c0714610375578063a3e0851d146103a557610158565b8063438596321161011557806343859632146102165780634ec81e45146102465780635c975abb14610276578063697c6045146102945780636c824487146102b25780638456cb59146102e557610158565b80630a6591c01461015d578063184c6aa31461017b5780633cd942fb146101995780633f4ba83a146101d25780633f53b43f146101dc5780634190e48f146101fa575b600080fd5b6101656104b9565b60405161017291906120ee565b60405180910390f35b6101836104bf565b60405161019091906120ee565b60405180910390f35b6101b360048036038101906101ae919061213f565b6104d5565b6040516101c99a99989796959493929190612271565b60405180910390f35b6101da6106ee565b005b6101e461079b565b6040516101f191906120ee565b60405180910390f35b610214600480360381019061020f91906123b3565b6107a0565b005b610230600480360381019061022b919061249e565b6107e7565b60405161023d91906124de565b60405180910390f35b610260600480360381019061025b919061213f565b610816565b60405161026d9190612667565b60405180910390f35b61027e610a9c565b60405161028b91906124de565b60405180910390f35b61029c610aaf565b6040516102a991906120ee565b60405180910390f35b6102cc60048036038101906102c79190612689565b610ab4565b6040516102dc94939291906126b6565b60405180910390f35b6102ed610af1565b005b6103096004803603810190610304919061213f565b610b9e565b005b610325600480360381019061032091906126fb565b610c74565b005b61032f610f3f565b60405161033c919061273b565b60405180910390f35b61035f600480360381019061035a91906126fb565b610f65565b60405161036c91906120ee565b60405180910390f35b61038f600480360381019061038a919061213f565b610f96565b60405161039c91906124de565b60405180910390f35b6103bf60048036038101906103ba9190612689565b610fc2565b6040516103cc91906127ab565b60405180910390f35b6103ef60048036038101906103ea9190612689565b611054565b6040516103fc9190612875565b60405180910390f35b61041f600480360381019061041a91906128c3565b6110eb565b005b61043b60048036038101906104369190612689565b61152b565b005b61045760048036038101906104529190612959565b6116a8565b60405161046491906120ee565b60405180910390f35b610487600480360381019061048291906128c3565b611b8a565b005b6104a3600480360381019061049e9190612a39565b611f37565b6040516104b091906120ee565b60405180910390f35b60055481565b600060016005546104d09190612a95565b905090565b60006020528060005260406000206000915090508060000154908060010180546104fe90612af8565b80601f016020809104026020016040519081016040528092919081815260200182805461052a90612af8565b80156105775780601f1061054c57610100808354040283529160200191610577565b820191906000526020600020905b81548152906001019060200180831161055a57829003601f168201915b50505050509080600201805461058c90612af8565b80601f01602080910402602001604051908101604052809291908181526020018280546105b890612af8565b80156106055780601f106105da57610100808354040283529160200191610605565b820191906000526020600020905b8154815290600101906020018083116105e857829003601f168201915b50505050509080600301805461061a90612af8565b80601f016020809104026020016040519081016040528092919081815260200182805461064690612af8565b80156106935780601f1061066857610100808354040283529160200191610693565b820191906000526020600020905b81548152906001019060200180831161067657829003601f168201915b5050505050908060040160009054906101000a900473ffffffffffffffffffffffffffffffffffffffff16908060050154908060060154908060070154908060080160009054906101000a900460ff1690806009015490508a565b600660009054906101000a900473ffffffffffffffffffffffffffffffffffffffff1673ffffffffffffffffffffffffffffffffffffffff163373ffffffffffffffffffffffffffffffffffffffff161461077e576040517f08c379a000000000000000000000000000000000000000000000000000000000815260040161077590612b75565b60405180910390fd5b6000600660146101000a81548160ff021916908315150217905550565b600381565b60007f3b7413fd02f68a55308a98a3599e3b6e267c374ab0fda31e4cf8dd15d13e3dea85856040516107d3929190612c2e565b60405180910390a250505050505050505050565b60036020528160005260406000206020528060005260406000206000915091509054906101000a900460ff1681565b61081e61203d565b600080838152602001908152602001600020604051806101400160405290816000820154815260200160018201805461085690612af8565b80601f016020809104026020016040519081016040528092919081815260200182805461088290612af8565b80156108cf5780601f106108a4576101008083540402835291602001916108cf565b820191906000526020600020905b8154815290600101906020018083116108b257829003601f168201915b505050505081526020016002820180546108e890612af8565b80601f016020809104026020016040519081016040528092919081815260200182805461091490612af8565b80156109615780601f1061093657610100808354040283529160200191610961565b820191906000526020600020905b81548152906001019060200180831161094457829003601f168201915b5050505050815260200160038201805461097a90612af8565b80601f01602080910402602001604051908101604052809291908181526020018280546109a690612af8565b80156109f35780601f106109c8576101008083540402835291602001916109f3565b820191906000526020600020905b8154815290600101906020018083116109d657829003601f168201915b505050505081526020016004820160009054906101000a900473ffffffffffffffffffffffffffffffffffffffff1673ffffffffffffffffffffffffffffffffffffffff1673ffffffffffffffffffffffffffffffffffffffff1681526020016005820154815260200160068201548152602001600782015481526020016008820160009054906101000a900460ff161515151581526020016009820154815250509050919050565b600660149054906101000a900460ff1681565b606481565b60026020528060005260406000206000915090508060000160009054906101000a900460ff16908060010154908060020154908060030154905084565b600660009054906101000a900473ffffffffffffffffffffffffffffffffffffffff1673ffffffffffffffffffffffffffffffffffffffff163373ffffffffffffffffffffffffffffffffffffffff1614610b81576040517f08c379a0000000000000000000000000000000000000000000000000000000008152600401610b7890612b75565b60405180910390fd5b6001600660146101000a81548160ff021916908315150217905550565b600660009054906101000a900473ffffffffffffffffffffffffffffffffffffffff1673ffffffffffffffffffffffffffffffffffffffff163373ffffffffffffffffffffffffffffffffffffffff1614610c2e576040517f08c379a0000000000000000000000000000000000000000000000000000000008152600401610c2590612b75565b60405180910390fd5b60008111610c71576040517f08c379a0000000000000000000000000000000000000000000000000000000008152600401610c6890612cb1565b60405180910390fd5b50565b600660009054906101000a900473ffffffffffffffffffffffffffffffffffffffff1673ffffffffffffffffffffffffffffffffffffffff163373ffffffffffffffffffffffffffffffffffffffff1614610d04576040517f08c379a0000000000000000000000000000000000000000000000000000000008152600401610cfb90612b75565b60405180910390fd5b600073ffffffffffffffffffffffffffffffffffffffff168273ffffffffffffffffffffffffffffffffffffffff1603610d73576040517f08c379a0000000000000000000000000000000000000000000000000000000008152600401610d6a90612d1d565b60405180910390fd5b600260008373ffffffffffffffffffffffffffffffffffffffff1673ffffffffffffffffffffffffffffffffffffffff16815260200190815260200160002060000160009054906101000a900460ff1615610e03576040517f08c379a0000000000000000000000000000000000000000000000000000000008152600401610dfa90612d89565b60405180910390fd5b6064811015610e47576040517f08c379a0000000000000000000000000000000000000000000000000000000008152600401610e3e90612df5565b60405180910390fd5b6040518060800160405280600115158152602001828152602001600081526020016000815250600260008473ffffffffffffffffffffffffffffffffffffffff1673ffffffffffffffffffffffffffffffffffffffff16815260200190815260200160002060008201518160000160006101000a81548160ff0219169083151502179055506020820151816001015560408201518160020155606082015181600301559050508173ffffffffffffffffffffffffffffffffffffffff167f24be30fa800e8c7b8606abded78e0e7865d8e62ad285bff7d7e3acb0ec4cd9ee82604051610f3391906120ee565b60405180910390a25050565b600660009054906101000a900473ffffffffffffffffffffffffffffffffffffffff1681565b60046020528160005260406000208181548110610f8157600080fd5b90600052602060002001600091509150505481565b600080600083815260200190815260200160002060080160009054906101000a900460ff169050919050565b610fca6120ab565b600260008373ffffffffffffffffffffffffffffffffffffffff1673ffffffffffffffffffffffffffffffffffffffff1681526020019081526020016000206040518060800160405290816000820160009054906101000a900460ff1615151515815260200160018201548152602001600282015481526020016003820154815250509050919050565b6060600460008373ffffffffffffffffffffffffffffffffffffffff1673ffffffffffffffffffffffffffffffffffffffff1681526020019081526020016000208054806020026020016040519081016040528092919081815260200182805480156110df57602002820191906000526020600020905b8154815260200190600101908083116110cb575b50505050509050919050565b600660149054906101000a900460ff161561113b576040517f08c379a000000000000000000000000000000000000000000000000000000000815260040161113290612e61565b60405180910390fd5b60008060008481526020019081526020016000206000015403611193576040517f08c379a000000000000000000000000000000000000000000000000000000000815260040161118a90612ecd565b60405180910390fd5b60008083815260200190815260200160002060080160009054906101000a900460ff16156111f6576040517f08c379a00000000000000000000000000000000000000000000000000000000081526004016111ed90612f39565b60405180910390fd5b6003600083815260200190815260200160002060003373ffffffffffffffffffffffffffffffffffffffff1673ffffffffffffffffffffffffffffffffffffffff16815260200190815260200160002060009054906101000a900460ff1615611294576040517f08c379a000000000000000000000000000000000000000000000000000000000815260040161128b90612fa5565b60405180910390fd5b3373ffffffffffffffffffffffffffffffffffffffff1660008084815260200190815260200160002060040160009054906101000a900473ffffffffffffffffffffffffffffffffffffffff1673ffffffffffffffffffffffffffffffffffffffff1603611337576040517f08c379a000000000000000000000000000000000000000000000000000000000815260040161132e90613011565b60405180910390fd5b60016003600084815260200190815260200160002060003373ffffffffffffffffffffffffffffffffffffffff1673ffffffffffffffffffffffffffffffffffffffff16815260200190815260200160002060006101000a81548160ff02191690831515021790555080156113d65760008083815260200190815260200160002060060160008154809291906113cc90613031565b9190505550611402565b60008083815260200190815260200160002060070160008154809291906113fc90613031565b91905055505b3373ffffffffffffffffffffffffffffffffffffffff16827f92be778599ef04e43712e05ba80048ac62f35a25c26d43dcd3a53bdead1f659f83600080878152602001908152602001600020600601546000808881526020019081526020016000206007015460405161147793929190613079565b60405180910390a3600080600084815260200190815260200160002060070154600080858152602001908152602001600020600601546114b791906130b0565b9050600381106114cb576114ca83611f4f565b5b827f3b7413fd02f68a55308a98a3599e3b6e267c374ab0fda31e4cf8dd15d13e3dea338484604051602001611502939291906130e4565b60405160208183030381529060405260405161151e91906131ab565b60405180910390a2505050565b600660009054906101000a900473ffffffffffffffffffffffffffffffffffffffff1673ffffffffffffffffffffffffffffffffffffffff163373ffffffffffffffffffffffffffffffffffffffff16146115bb576040517f08c379a00000000000000000000000000000000000000000000000000000000081526004016115b290612b75565b60405180910390fd5b600260008273ffffffffffffffffffffffffffffffffffffffff1673ffffffffffffffffffffffffffffffffffffffff16815260200190815260200160002060000160009054906101000a900460ff1661164a576040517f08c379a00000000000000000000000000000000000000000000000000000000081526004016116419061322c565b60405180910390fd5b6000600260008373ffffffffffffffffffffffffffffffffffffffff1673ffffffffffffffffffffffffffffffffffffffff16815260200190815260200160002060000160006101000a81548160ff02191690831515021790555050565b6000600660149054906101000a900460ff16156116fa576040517f08c379a00000000000000000000000000000000000000000000000000000000081526004016116f190612e61565b60405180910390fd5b60008787905011611740576040517f08c379a000000000000000000000000000000000000000000000000000000000815260040161173790613298565b60405180910390fd5b60008585905011611786576040517f08c379a000000000000000000000000000000000000000000000000000000000815260040161177d90613304565b60405180910390fd5b60008787878760405160200161179f9493929190613354565b604051602081830303815290604052805190602001209050600060016000838152602001908152602001600020541461180d576040517f08c379a0000000000000000000000000000000000000000000000000000000008152600401611804906133c8565b60405180910390fd5b60006005600081548092919061182290613031565b9190505590506040518061014001604052808281526020018a8a8080601f016020809104026020016040519081016040528093929190818152602001838380828437600081840152601f19601f82011690508083019250505050505050815260200188888080601f016020809104026020016040519081016040528093929190818152602001838380828437600081840152601f19601f82011690508083019250505050505050815260200186868080601f016020809104026020016040519081016040528093929190818152602001838380828437600081840152601f19601f8201169050808301925050505050505081526020013373ffffffffffffffffffffffffffffffffffffffff16815260200142815260200160008152602001600081526020016000151581526020018381525060008083815260200190815260200160002060008201518160000155602082015181600101908161198691906135c3565b50604082015181600201908161199c91906135c3565b5060608201518160030190816119b291906135c3565b5060808201518160040160006101000a81548173ffffffffffffffffffffffffffffffffffffffff021916908373ffffffffffffffffffffffffffffffffffffffff16021790555060a0820151816005015560c0820151816006015560e082015181600701556101008201518160080160006101000a81548160ff0219169083151502179055506101208201518160090155905050806001600084815260200190815260200160002081905550600460003373ffffffffffffffffffffffffffffffffffffffff1673ffffffffffffffffffffffffffffffffffffffff1681526020019081526020016000208190806001815401808255809150506001900390600052602060002001600090919091909150553373ffffffffffffffffffffffffffffffffffffffff16817f24597a36951aa1f02345000b00f855b3234dc2fd6b0d5192c5b958d7a24e476e8b8b898942604051611b149594939291906136c2565b60405180910390a3807f3b7413fd02f68a55308a98a3599e3b6e267c374ab0fda31e4cf8dd15d13e3dea8a8a888833604051602001611b5795949392919061370b565b604051602081830303815290604052604051611b7391906137a0565b60405180910390a280925050509695505050505050565b600260003373ffffffffffffffffffffffffffffffffffffffff1673ffffffffffffffffffffffffffffffffffffffff16815260200190815260200160002060000160009054906101000a900460ff16611c19576040517f08c379a0000000000000000000000000000000000000000000000000000000008152600401611c1090613821565b60405180910390fd5b600660149054906101000a900460ff1615611c69576040517f08c379a0000000000000000000000000000000000000000000000000000000008152600401611c6090612e61565b60405180910390fd5b60008060008481526020019081526020016000206000015403611cc1576040517f08c379a0000000000000000000000000000000000000000000000000000000008152600401611cb890612ecd565b60405180910390fd5b60008083815260200190815260200160002060080160009054906101000a900460ff1615611d24576040517f08c379a0000000000000000000000000000000000000000000000000000000008152600401611d1b90612f39565b60405180910390fd5b600160008084815260200190815260200160002060080160006101000a81548160ff0219169083151502179055506000600260003373ffffffffffffffffffffffffffffffffffffffff1673ffffffffffffffffffffffffffffffffffffffff1681526020019081526020016000209050806002016000815480929190611daa90613031565b91905055506000816001015490508215611df657816003016000815480929190611dd390613031565b9190505550600a8260010154611de991906130b0565b8260010181905550611e1e565b600a82600101541115611e1d5760058260010154611e149190612a95565b82600101819055505b5b837f1757064b9e025ada6bd0d251014bb1d995f39b849082011fba0b2a3f8d85af58846000808881526020019081526020016000206006015460008089815260200190815260200160002060070154604051611e7c93929190613079565b60405180910390a23373ffffffffffffffffffffffffffffffffffffffff167fcbcc815b11e4115682edc9edb6d7c60c1b72cd98db78af9c8afa2db95f99839a828460010154604051611ed0929190613841565b60405180910390a2837f3b7413fd02f68a55308a98a3599e3b6e267c374ab0fda31e4cf8dd15d13e3dea8433604051602001611f0d92919061386a565b604051602081830303815290604052604051611f2991906138df565b60405180910390a250505050565b60016020528060005260406000206000915090505481565b6000806000838152602001908152602001600020905060008160070154826006015411905060018260080160006101000a81548160ff021916908315150217905550827f1757064b9e025ada6bd0d251014bb1d995f39b849082011fba0b2a3f8d85af588284600601548560070154604051611fcd93929190613079565b60405180910390a2827f3b7413fd02f68a55308a98a3599e3b6e267c374ab0fda31e4cf8dd15d13e3dea828460060154856007015460405160200161201493929190613079565b6040516020818303038152906040526040516120309190613960565b60405180910390a2505050565b60405180610140016040528060008152602001606081526020016060815260200160608152602001600073ffffffffffffffffffffffffffffffffffffffff168152602001600081526020016000815260200160008152602001600015158152602001600080191681525090565b60405180608001604052806000151581526020016000815260200160008152602001600081525090565b6000819050919050565b6120e8816120d5565b82525050565b600060208201905061210360008301846120df565b92915050565b600080fd5b600080fd5b61211c816120d5565b811461212757600080fd5b50565b60008135905061213981612113565b92915050565b60006020828403121561215557612154612109565b5b60006121638482850161212a565b91505092915050565b600081519050919050565b600082825260208201905092915050565b60005b838110156121a657808201518184015260208101905061218b565b60008484015250505050565b6000601f19601f8301169050919050565b60006121ce8261216c565b6121d88185612177565b93506121e8818560208601612188565b6121f1816121b2565b840191505092915050565b600073ffffffffffffffffffffffffffffffffffffffff82169050919050565b6000612227826121fc565b9050919050565b6122378161221c565b82525050565b60008115159050919050565b6122528161223d565b82525050565b6000819050919050565b61226b81612258565b82525050565b600061014082019050612287600083018d6120df565b8181036020830152612299818c6121c3565b905081810360408301526122ad818b6121c3565b905081810360608301526122c1818a6121c3565b90506122d0608083018961222e565b6122dd60a08301886120df565b6122ea60c08301876120df565b6122f760e08301866120df565b612305610100830185612249565b612313610120830184612262565b9b9a5050505050505050505050565b61232b8161221c565b811461233657600080fd5b50565b60008135905061234881612322565b92915050565b600080fd5b600080fd5b600080fd5b60008083601f8401126123735761237261234e565b5b8235905067ffffffffffffffff8111156123905761238f612353565b5b6020830191508360018202830111156123ac576123ab612358565b5b9250929050565b6000806000806000806000806000806101208b8d0312156123d7576123d6612109565b5b60006123e58d828e0161212a565b9a505060206123f68d828e01612339565b99505060406124078d828e0161212a565b98505060606124188d828e0161212a565b97505060806124298d828e0161212a565b96505060a061243a8d828e0161212a565b95505060c08b013567ffffffffffffffff81111561245b5761245a61210e565b5b6124678d828e0161235d565b945094505060e061247a8d828e0161212a565b92505061010061248c8d828e0161212a565b9150509295989b9194979a5092959850565b600080604083850312156124b5576124b4612109565b5b60006124c38582860161212a565b92505060206124d485828601612339565b9150509250929050565b60006020820190506124f36000830184612249565b92915050565b612502816120d5565b82525050565b600082825260208201905092915050565b60006125248261216c565b61252e8185612508565b935061253e818560208601612188565b612547816121b2565b840191505092915050565b61255b8161221c565b82525050565b61256a8161223d565b82525050565b61257981612258565b82525050565b60006101408301600083015161259860008601826124f9565b50602083015184820360208601526125b08282612519565b915050604083015184820360408601526125ca8282612519565b915050606083015184820360608601526125e48282612519565b91505060808301516125f96080860182612552565b5060a083015161260c60a08601826124f9565b5060c083015161261f60c08601826124f9565b5060e083015161263260e08601826124f9565b50610100830151612647610100860182612561565b5061012083015161265c610120860182612570565b508091505092915050565b60006020820190508181036000830152612681818461257f565b905092915050565b60006020828403121561269f5761269e612109565b5b60006126ad84828501612339565b91505092915050565b60006080820190506126cb6000830187612249565b6126d860208301866120df565b6126e560408301856120df565b6126f260608301846120df565b95945050505050565b6000806040838503121561271257612711612109565b5b600061272085828601612339565b92505060206127318582860161212a565b9150509250929050565b6000602082019050612750600083018461222e565b92915050565b60808201600082015161276c6000850182612561565b50602082015161277f60208501826124f9565b50604082015161279260408501826124f9565b5060608201516127a560608501826124f9565b50505050565b60006080820190506127c06000830184612756565b92915050565b600081519050919050565b600082825260208201905092915050565b6000819050602082019050919050565b60006127fe83836124f9565b60208301905092915050565b6000602082019050919050565b6000612822826127c6565b61282c81856127d1565b9350612837836127e2565b8060005b8381101561286857815161284f88826127f2565b975061285a8361280a565b92505060018101905061283b565b5085935050505092915050565b6000602082019050818103600083015261288f8184612817565b905092915050565b6128a08161223d565b81146128ab57600080fd5b50565b6000813590506128bd81612897565b92915050565b600080604083850312156128da576128d9612109565b5b60006128e88582860161212a565b92505060206128f9858286016128ae565b9150509250929050565b60008083601f8401126129195761291861234e565b5b8235905067ffffffffffffffff81111561293657612935612353565b5b60208301915083600182028301111561295257612951612358565b5b9250929050565b6000806000806000806060878903121561297657612975612109565b5b600087013567ffffffffffffffff8111156129945761299361210e565b5b6129a089828a01612903565b9650965050602087013567ffffffffffffffff8111156129c3576129c261210e565b5b6129cf89828a01612903565b9450945050604087013567ffffffffffffffff8111156129f2576129f161210e565b5b6129fe89828a01612903565b92509250509295509295509295565b612a1681612258565b8114612a2157600080fd5b50565b600081359050612a3381612a0d565b92915050565b600060208284031215612a4f57612a4e612109565b5b6000612a5d84828501612a24565b91505092915050565b7f4e487b7100000000000000000000000000000000000000000000000000000000600052601160045260246000fd5b6000612aa0826120d5565b9150612aab836120d5565b9250828203905081811115612ac357612ac2612a66565b5b92915050565b7f4e487b7100000000000000000000000000000000000000000000000000000000600052602260045260246000fd5b60006002820490506001821680612b1057607f821691505b602082108103612b2357612b22612ac9565b5b50919050565b7f4f6e6c79206f776e657200000000000000000000000000000000000000000000600082015250565b6000612b5f600a83612177565b9150612b6a82612b29565b602082019050919050565b60006020820190508181036000830152612b8e81612b52565b9050919050565b7f63726f73735f636861696e5f7265616374696f6e000000000000000000000000600082015250565b6000612bcb601483612177565b9150612bd682612b95565b602082019050919050565b600082825260208201905092915050565b82818337600083830152505050565b6000612c0d8385612be1565b9350612c1a838584612bf2565b612c23836121b2565b840190509392505050565b60006040820190508181036000830152612c4781612bbe565b90508181036020830152612c5c818486612c01565b90509392505050565b7f496e76616c6964207468726573686f6c64000000000000000000000000000000600082015250565b6000612c9b601183612177565b9150612ca682612c65565b602082019050919050565b60006020820190508181036000830152612cca81612c8e565b9050919050565b7f496e76616c696420616464726573730000000000000000000000000000000000600082015250565b6000612d07600f83612177565b9150612d1282612cd1565b602082019050919050565b60006020820190508181036000830152612d3681612cfa565b9050919050565b7f416c726561647920617574686f72697a65640000000000000000000000000000600082015250565b6000612d73601283612177565b9150612d7e82612d3d565b602082019050919050565b60006020820190508181036000830152612da281612d66565b9050919050565b7f496e73756666696369656e742072657075746174696f6e000000000000000000600082015250565b6000612ddf601783612177565b9150612dea82612da9565b602082019050919050565b60006020820190508181036000830152612e0e81612dd2565b9050919050565b7f436f6e7472616374207061757365640000000000000000000000000000000000600082015250565b6000612e4b600f83612177565b9150612e5682612e15565b602082019050919050565b60006020820190508181036000830152612e7a81612e3e565b9050919050565b7f4e657773206e6f7420666f756e64000000000000000000000000000000000000600082015250565b6000612eb7600e83612177565b9150612ec282612e81565b602082019050919050565b60006020820190508181036000830152612ee681612eaa565b9050919050565b7f416c726561647920766572696669656400000000000000000000000000000000600082015250565b6000612f23601083612177565b9150612f2e82612eed565b602082019050919050565b60006020820190508181036000830152612f5281612f16565b9050919050565b7f416c726561647920766f74656400000000000000000000000000000000000000600082015250565b6000612f8f600d83612177565b9150612f9a82612f59565b602082019050919050565b60006020820190508181036000830152612fbe81612f82565b9050919050565b7f43616e6e6f7420766f7465206f6e206f776e207375626d697373696f6e000000600082015250565b6000612ffb601d83612177565b915061300682612fc5565b602082019050919050565b6000602082019050818103600083015261302a81612fee565b9050919050565b600061303c826120d5565b91507fffffffffffffffffffffffffffffffffffffffffffffffffffffffffffffffff820361306e5761306d612a66565b5b600182019050919050565b600060608201905061308e6000830186612249565b61309b60208301856120df565b6130a860408301846120df565b949350505050565b60006130bb826120d5565b91506130c6836120d5565b92508282019050808211156130de576130dd612a66565b5b92915050565b60006060820190506130f9600083018661222e565b6131066020830185612249565b61311360408301846120df565b949350505050565b7f766f74655f636173740000000000000000000000000000000000000000000000600082015250565b6000613151600983612177565b915061315c8261311b565b602082019050919050565b600081519050919050565b600061317d82613167565b6131878185612be1565b9350613197818560208601612188565b6131a0816121b2565b840191505092915050565b600060408201905081810360008301526131c481613144565b905081810360208301526131d88184613172565b905092915050565b7f4e6f7420617574686f72697a6564000000000000000000000000000000000000600082015250565b6000613216600e83612177565b9150613221826131e0565b602082019050919050565b6000602082019050818103600083015261324581613209565b9050919050565b7f5469746c65207265717569726564000000000000000000000000000000000000600082015250565b6000613282600e83612177565b915061328d8261324c565b602082019050919050565b600060208201905081810360008301526132b181613275565b9050919050565b7f436f6e74656e7420726571756972656400000000000000000000000000000000600082015250565b60006132ee601083612177565b91506132f9826132b8565b602082019050919050565b6000602082019050818103600083015261331d816132e1565b9050919050565b600081905092915050565b600061333b8385613324565b9350613348838584612bf2565b82840190509392505050565b600061336182868861332f565b915061336e82848661332f565b915081905095945050505050565b7f4475706c696361746520636f6e74656e74000000000000000000000000000000600082015250565b60006133b2601183612177565b91506133bd8261337c565b602082019050919050565b600060208201905081810360008301526133e1816133a5565b9050919050565b7f4e487b7100000000000000000000000000000000000000000000000000000000600052604160045260246000fd5b60008190508160005260206000209050919050565b60006020601f8301049050919050565b600082821b905092915050565b6000600883026134797fffffffffffffffffffffffffffffffffffffffffffffffffffffffffffffffff8261343c565b613483868361343c565b95508019841693508086168417925050509392505050565b6000819050919050565b60006134c06134bb6134b6846120d5565b61349b565b6120d5565b9050919050565b6000819050919050565b6134da836134a5565b6134ee6134e6826134c7565b848454613449565b825550505050565b600090565b6135036134f6565b61350e8184846134d1565b505050565b5b81811015613532576135276000826134fb565b600181019050613514565b5050565b601f8211156135775761354881613417565b6135518461342c565b81016020851015613560578190505b61357461356c8561342c565b830182613513565b50505b505050565b600082821c905092915050565b600061359a6000198460080261357c565b1980831691505092915050565b60006135b38383613589565b9150826002028217905092915050565b6135cc8261216c565b67ffffffffffffffff8111156135e5576135e46133e8565b5b6135ef8254612af8565b6135fa828285613536565b600060209050601f83116001811461362d576000841561361b578287015190505b61362585826135a7565b86555061368d565b601f19841661363b86613417565b60005b828110156136635784890151825560018201915060208501945060208101905061363e565b86831015613680578489015161367c601f891682613589565b8355505b6001600288020188555050505b505050505050565b60006136a18385612177565b93506136ae838584612bf2565b6136b7836121b2565b840190509392505050565b600060608201905081810360008301526136dd818789613695565b905081810360208301526136f2818587613695565b905061370160408301846120df565b9695505050505050565b60006060820190508181036000830152613726818789613695565b9050818103602083015261373b818587613695565b905061374a604083018461222e565b9695505050505050565b7f6e6577735f7375626d6974746564000000000000000000000000000000000000600082015250565b600061378a600e83612177565b915061379582613754565b602082019050919050565b600060408201905081810360008301526137b98161377d565b905081810360208301526137cd8184613172565b905092915050565b7f4e6f7420617574686f72697a6564207665726966696572000000000000000000600082015250565b600061380b601783612177565b9150613816826137d5565b602082019050919050565b6000602082019050818103600083015261383a816137fe565b9050919050565b600060408201905061385660008301856120df565b61386360208301846120df565b9392505050565b600060408201905061387f6000830185612249565b61388c602083018461222e565b9392505050565b7f7665726966696564000000000000000000000000000000000000000000000000600082015250565b60006138c9600883612177565b91506138d482613893565b602082019050919050565b600060408201905081810360008301526138f8816138bc565b9050818103602083015261390c8184613172565b905092915050565b7f636f6d6d756e6974795f76657269666965640000000000000000000000000000600082015250565b600061394a601283612177565b915061395582613914565b602082019050919050565b600060408201905081810360008301526139798161393d565b9050818103602083015261398d8184613172565b90509291505056fea2646970667358221220aca93f9269da209514fac7698ab842bf39eabe5aaa1885ce8f090e52679ac02964736f6c63430008130033a26469706673582212207dc1676dbbc4d163e0cef1c7b97cf0abc52029b1477c5ef65697acf8dadcfddd64736f6c63430008130033",
  "linkReferences": {},
  "deployedLinkReferences": {}
}